{
  "contractName": "ChecksumStorage",
  "abi": [
    {
      "anonymous": false,
      "inputs": [],
      "name": "Stored",
      "type": "event"
    },
    {
      "constant": true,
      "inputs": [],
      "name": "storedChecksum",
      "outputs": [
        {
          "internalType": "string",
          "name": "",
          "type": "string"
        }
      ],
      "payable": false,
      "stateMutability": "view",
      "type": "function"
    },
    {
      "constant": false,
      "inputs": [
        {
          "internalType": "string",
          "name": "checksum",
          "type": "string"
        }
      ],
      "name": "store",
      "outputs": [
        {
          "internalType": "bool",
          "name": "",
          "type": "bool"
        }
      ],
      "payable": false,
      "stateMutability": "nonpayable",
      "type": "function"
    },
    {
      "constant": true,
      "inputs": [
        {
          "internalType": "string",
          "name": "checksum",
          "type": "string"
        }
      ],
      "name": "isStored",
      "outputs": [
        {
          "internalType": "bool",
          "name": "",
          "type": "bool"
        }
      ],
      "payable": false,
      "stateMutability": "view",
      "type": "function"
    },
    {
      "constant": true,
      "inputs": [
        {
          "internalType": "string",
          "name": "a",
          "type": "string"
        },
        {
          "internalType": "string",
          "name": "b",
          "type": "string"
        }
      ],
      "name": "stringAreEquals",
      "outputs": [
        {
          "internalType": "bool",
          "name": "",
          "type": "bool"
        }
      ],
      "payable": false,
      "stateMutability": "pure",
      "type": "function"
    }
  ],
  "bytecode": "0x608060405234801561001057600080fd5b5061075f806100206000396000f3fe608060405234801561001057600080fd5b5060043610610069576000357c010000000000000000000000000000000000000000000000000000000090048063131a06801461006e5780634da43f8e1461014157806383f5f38b146101c4578063856521361461032e575b600080fd5b6101276004803603602081101561008457600080fd5b81019080803590602001906401000000008111156100a157600080fd5b8201836020820111156100b357600080fd5b803590602001918460018302840111640100000000831117156100d557600080fd5b91908080601f016020809104026020016040519081016040528093929190818152602001838380828437600081840152601f19601f820116905080830192505050505050509192919290505050610401565b604051808215151515815260200191505060405180910390f35b61014961044b565b6040518080602001828103825283818151815260200191508051906020019080838360005b8381101561018957808201518184015260208101905061016e565b50505050905090810190601f1680156101b65780820380516001836020036101000a031916815260200191505b509250505060405180910390f35b610314600480360360408110156101da57600080fd5b81019080803590602001906401000000008111156101f757600080fd5b82018360208201111561020957600080fd5b8035906020019184600183028401116401000000008311171561022b57600080fd5b91908080601f016020809104026020016040519081016040528093929190818152602001838380828437600081840152601f19601f8201169050808301925050505050505091929192908035906020019064010000000081111561028e57600080fd5b8201836020820111156102a057600080fd5b803590602001918460018302840111640100000000831117156102c257600080fd5b91908080601f016020809104026020016040519081016040528093929190818152602001838380828437600081840152601f19601f8201169050808301925050505050505091929192905050506104e9565b604051808215151515815260200191505060405180910390f35b6103e76004803603602081101561034457600080fd5b810190808035906020019064010000000081111561036157600080fd5b82018360208201111561037357600080fd5b8035906020019184600183028401116401000000008311171561039557600080fd5b91908080601f016020809104026020016040519081016040528093929190818152602001838380828437600081840152601f19601f8201169050808301925050505050505091929192905050506105d8565b604051808215151515815260200191505060405180910390f35b60008160009080519060200190610419929190610685565b507f475e39464b473d2caca79a72e3952011c9081ed5b8dc8f4bd0cfbec9f6ea0ef560405160405180910390a1919050565b60008054600181600116156101000203166002900480601f0160208091040260200160405190810160405280929190818152602001828054600181600116156101000203166002900480156104e15780601f106104b6576101008083540402835291602001916104e1565b820191906000526020600020905b8154815290600101906020018083116104c457829003601f168201915b505050505081565b6000816040516020018082805190602001908083835b6020831061052257805182526020820191506020810190506020830392506104ff565b6001836020036101000a03801982511681845116808217855250505050505090500191505060405160208183030381529060405280519060200120836040516020018082805190602001908083835b602083106105945780518252602082019150602081019050602083039250610571565b6001836020036101000a0380198251168184511680821785525050505050509050019150506040516020818303038152906040528051906020012014905092915050565b600061067e60008054600181600116156101000203166002900480601f0160208091040260200160405190810160405280929190818152602001828054600181600116156101000203166002900480156106735780601f1061064857610100808354040283529160200191610673565b820191906000526020600020905b81548152906001019060200180831161065657829003601f168201915b5050505050836104e9565b9050919050565b828054600181600116156101000203166002900490600052602060002090601f016020900481019282601f106106c657805160ff19168380011785556106f4565b828001600101855582156106f4579182015b828111156106f35782518255916020019190600101906106d8565b5b5090506107019190610705565b5090565b61072791905b8082111561072357600081600090555060010161070b565b5090565b9056fea265627a7a72315820a66400554849df5b2bedce85f5fdf7987bcea2e530d4286021c5573baf8c939664736f6c63430005100032",
  "source": "// SPDX-License-Identifier: None\npragma solidity >=0.4.22 <0.8.0;\n\ncontract ChecksumStorage {\n    string public storedChecksum;\n\n    event Stored();\n\n    function store(string memory checksum) public returns (bool) {\n        storedChecksum = checksum;\n        emit Stored();\n    }\n\n    function isStored(string memory checksum) public view returns (bool) {\n        return stringAreEquals(storedChecksum, checksum);\n    }\n\n    function stringAreEquals(string memory a, string memory b)\n        public\n        pure\n        returns (bool)\n    {\n        return (keccak256(abi.encodePacked(a)) ==\n            keccak256(abi.encodePacked(b)));\n    }\n}\n",
  "sourcePath": "/Users/danielluquequintana/Wealize/validator/blockchain/contracts/src/ChecksumStorage.sol",
  "compiler": {
    "name": "solc",
    "version": "0.5.16+commit.9c3226ce.Emscripten.clang"
  },
  "schemaVersion": "3.0.23",
  "updatedAt": "2020-09-24T14:20:49.082Z",
  "networkType": "quorum",
  "devdoc": {
    "methods": {}
  },
  "userdoc": {
    "methods": {}
  }
}